{
  "_format": "hh-sol-artifact-1",
  "contractName": "HealthRecord",
  "sourceName": "contracts/HealthRecord.sol",
  "abi": [
    {
      "inputs": [],
      "stateMutability": "nonpayable",
      "type": "constructor"
    },
    {
      "anonymous": false,
      "inputs": [
        {
          "indexed": true,
          "internalType": "string",
          "name": "recordId",
          "type": "string"
        },
        {
          "indexed": true,
          "internalType": "string",
          "name": "nida",
          "type": "string"
        },
        {
          "indexed": false,
          "internalType": "string",
          "name": "recordHash",
          "type": "string"
        },
        {
          "indexed": false,
          "internalType": "string",
          "name": "recordType",
          "type": "string"
        },
        {
          "indexed": false,
          "internalType": "address",
          "name": "addedBy",
          "type": "address"
        },
        {
          "indexed": false,
          "internalType": "uint256",
          "name": "timestamp",
          "type": "uint256"
        }
      ],
      "name": "RecordAdded",
      "type": "event"
    },
    {
      "inputs": [
        {
          "internalType": "string",
          "name": "_recordId",
          "type": "string"
        },
        {
          "internalType": "string",
          "name": "_nida",
          "type": "string"
        },
        {
          "internalType": "string",
          "name": "_recordHash",
          "type": "string"
        },
        {
          "internalType": "string",
          "name": "_recordType",
          "type": "string"
        },
        {
          "internalType": "string",
          "name": "_facility",
          "type": "string"
        },
        {
          "internalType": "string",
          "name": "_doctorId",
          "type": "string"
        }
      ],
      "name": "addRecord",
      "outputs": [],
      "stateMutability": "nonpayable",
      "type": "function"
    },
    {
      "inputs": [],
      "name": "admin",
      "outputs": [
        {
          "internalType": "address",
          "name": "",
          "type": "address"
        }
      ],
      "stateMutability": "view",
      "type": "function"
    },
    {
      "inputs": [
        {
          "internalType": "string",
          "name": "_nida",
          "type": "string"
        }
      ],
      "name": "getPatientRecordIds",
      "outputs": [
        {
          "internalType": "string[]",
          "name": "",
          "type": "string[]"
        }
      ],
      "stateMutability": "view",
      "type": "function"
    },
    {
      "inputs": [
        {
          "internalType": "string",
          "name": "_recordId",
          "type": "string"
        }
      ],
      "name": "getRecord",
      "outputs": [
        {
          "internalType": "string",
          "name": "",
          "type": "string"
        },
        {
          "internalType": "string",
          "name": "",
          "type": "string"
        },
        {
          "internalType": "string",
          "name": "",
          "type": "string"
        },
        {
          "internalType": "string",
          "name": "",
          "type": "string"
        },
        {
          "internalType": "string",
          "name": "",
          "type": "string"
        },
        {
          "internalType": "string",
          "name": "",
          "type": "string"
        },
        {
          "internalType": "uint256",
          "name": "",
          "type": "uint256"
        },
        {
          "internalType": "bool",
          "name": "",
          "type": "bool"
        }
      ],
      "stateMutability": "view",
      "type": "function"
    },
    {
      "inputs": [
        {
          "internalType": "string",
          "name": "_recordId",
          "type": "string"
        }
      ],
      "name": "invalidateRecord",
      "outputs": [],
      "stateMutability": "nonpayable",
      "type": "function"
    },
    {
      "inputs": [
        {
          "internalType": "string",
          "name": "",
          "type": "string"
        },
        {
          "internalType": "uint256",
          "name": "",
          "type": "uint256"
        }
      ],
      "name": "patientRecords",
      "outputs": [
        {
          "internalType": "string",
          "name": "",
          "type": "string"
        }
      ],
      "stateMutability": "view",
      "type": "function"
    },
    {
      "inputs": [
        {
          "internalType": "string",
          "name": "",
          "type": "string"
        }
      ],
      "name": "records",
      "outputs": [
        {
          "internalType": "string",
          "name": "recordId",
          "type": "string"
        },
        {
          "internalType": "string",
          "name": "nida",
          "type": "string"
        },
        {
          "internalType": "string",
          "name": "recordHash",
          "type": "string"
        },
        {
          "internalType": "string",
          "name": "recordType",
          "type": "string"
        },
        {
          "internalType": "string",
          "name": "facility",
          "type": "string"
        },
        {
          "internalType": "string",
          "name": "doctorId",
          "type": "string"
        },
        {
          "internalType": "uint256",
          "name": "timestamp",
          "type": "uint256"
        },
        {
          "internalType": "bool",
          "name": "isValid",
          "type": "bool"
        }
      ],
      "stateMutability": "view",
      "type": "function"
    },
    {
      "inputs": [
        {
          "internalType": "string",
          "name": "_recordId",
          "type": "string"
        },
        {
          "internalType": "string",
          "name": "_recordHash",
          "type": "string"
        }
      ],
      "name": "verifyRecord",
      "outputs": [
        {
          "internalType": "bool",
          "name": "",
          "type": "bool"
        }
      ],
      "stateMutability": "view",
      "type": "function"
    }
  ],
  "bytecode": "0x608060405234801561001057600080fd5b5033600260006101000a81548173ffffffffffffffffffffffffffffffffffffffff021916908373ffffffffffffffffffffffffffffffffffffffff160217905550611c9a806100616000396000f3fe608060405234801561001057600080fd5b50600436106100885760003560e01c806385ae085e1161005b57806385ae085e14610147578063b8a751df14610177578063f06b3b79146101a7578063f851a440146101c357610088565b806311dd88451461008d578063262b4028146100c45780633de2e8e9146100e0578063541e771d14610110575b600080fd5b6100a760048036038101906100a291906110f6565b6101e1565b6040516100bb9897969594939291906111f2565b60405180910390f35b6100de60048036038101906100d991906110f6565b6105ef565b005b6100fa60048036038101906100f5919061129a565b6106bb565b6040516101079190611312565b60405180910390f35b61012a600480360381019061012591906110f6565b610704565b60405161013e9897969594939291906111f2565b60405180910390f35b610161600480360381019061015c91906110f6565b610a9f565b60405161016e9190611439565b60405180910390f35b610191600480360381019061018c9190611487565b610b96565b60405161019e91906114e3565b60405180910390f35b6101c160048036038101906101bc9190611505565b610c65565b005b6101cb610f76565b6040516101d8919061167b565b60405180910390f35b6060806060806060806000806000808a6040516101fe91906116d2565b90815260200160405180910390206040518061010001604052908160008201805461022890611718565b80601f016020809104026020016040519081016040528092919081815260200182805461025490611718565b80156102a15780601f10610276576101008083540402835291602001916102a1565b820191906000526020600020905b81548152906001019060200180831161028457829003601f168201915b505050505081526020016001820180546102ba90611718565b80601f01602080910402602001604051908101604052809291908181526020018280546102e690611718565b80156103335780601f1061030857610100808354040283529160200191610333565b820191906000526020600020905b81548152906001019060200180831161031657829003601f168201915b5050505050815260200160028201805461034c90611718565b80601f016020809104026020016040519081016040528092919081815260200182805461037890611718565b80156103c55780601f1061039a576101008083540402835291602001916103c5565b820191906000526020600020905b8154815290600101906020018083116103a857829003601f168201915b505050505081526020016003820180546103de90611718565b80601f016020809104026020016040519081016040528092919081815260200182805461040a90611718565b80156104575780601f1061042c57610100808354040283529160200191610457565b820191906000526020600020905b81548152906001019060200180831161043a57829003601f168201915b5050505050815260200160048201805461047090611718565b80601f016020809104026020016040519081016040528092919081815260200182805461049c90611718565b80156104e95780601f106104be576101008083540402835291602001916104e9565b820191906000526020600020905b8154815290600101906020018083116104cc57829003601f168201915b5050505050815260200160058201805461050290611718565b80601f016020809104026020016040519081016040528092919081815260200182805461052e90611718565b801561057b5780601f106105505761010080835404028352916020019161057b565b820191906000526020600020905b81548152906001019060200180831161055e57829003601f168201915b50505050508152602001600682015481526020016007820160009054906101000a900460ff1615151515815250509050806000015181602001518260400151836060015184608001518560a001518660c001518760e001519850985098509850985098509850985050919395975091939597565b600260009054906101000a900473ffffffffffffffffffffffffffffffffffffffff1673ffffffffffffffffffffffffffffffffffffffff163373ffffffffffffffffffffffffffffffffffffffff161461067f576040517f08c379a0000000000000000000000000000000000000000000000000000000008152600401610676906117bb565b60405180910390fd5b6000808260405161069091906116d2565b908152602001604051809103902060070160006101000a81548160ff02191690831515021790555050565b600081805190602001206000846040516106d591906116d2565b90815260200160405180910390206002016040516106f3919061187e565b604051809103902014905092915050565b60008180516020810182018051848252602083016020850120818352809550505050505060009150905080600001805461073d90611718565b80601f016020809104026020016040519081016040528092919081815260200182805461076990611718565b80156107b65780601f1061078b576101008083540402835291602001916107b6565b820191906000526020600020905b81548152906001019060200180831161079957829003601f168201915b5050505050908060010180546107cb90611718565b80601f01602080910402602001604051908101604052809291908181526020018280546107f790611718565b80156108445780601f1061081957610100808354040283529160200191610844565b820191906000526020600020905b81548152906001019060200180831161082757829003601f168201915b50505050509080600201805461085990611718565b80601f016020809104026020016040519081016040528092919081815260200182805461088590611718565b80156108d25780601f106108a7576101008083540402835291602001916108d2565b820191906000526020600020905b8154815290600101906020018083116108b557829003601f168201915b5050505050908060030180546108e790611718565b80601f016020809104026020016040519081016040528092919081815260200182805461091390611718565b80156109605780601f1061093557610100808354040283529160200191610960565b820191906000526020600020905b81548152906001019060200180831161094357829003601f168201915b50505050509080600401805461097590611718565b80601f01602080910402602001604051908101604052809291908181526020018280546109a190611718565b80156109ee5780601f106109c3576101008083540402835291602001916109ee565b820191906000526020600020905b8154815290600101906020018083116109d157829003601f168201915b505050505090806005018054610a0390611718565b80601f0160208091040260200160405190810160405280929190818152602001828054610a2f90611718565b8015610a7c5780601f10610a5157610100808354040283529160200191610a7c565b820191906000526020600020905b815481529060010190602001808311610a5f57829003601f168201915b5050505050908060060154908060070160009054906101000a900460ff16905088565b6060600182604051610ab191906116d2565b9081526020016040518091039020805480602002602001604051908101604052809291908181526020016000905b82821015610b8b578382906000526020600020018054610afe90611718565b80601f0160208091040260200160405190810160405280929190818152602001828054610b2a90611718565b8015610b775780601f10610b4c57610100808354040283529160200191610b77565b820191906000526020600020905b815481529060010190602001808311610b5a57829003601f168201915b505050505081526020019060010190610adf565b505050509050919050565b6001828051602081018201805184825260208301602085012081835280955050505050508181548110610bc857600080fd5b90600052602060002001600091509150508054610be490611718565b80601f0160208091040260200160405190810160405280929190818152602001828054610c1090611718565b8015610c5d5780601f10610c3257610100808354040283529160200191610c5d565b820191906000526020600020905b815481529060010190602001808311610c4057829003601f168201915b505050505081565b600260009054906101000a900473ffffffffffffffffffffffffffffffffffffffff1673ffffffffffffffffffffffffffffffffffffffff163373ffffffffffffffffffffffffffffffffffffffff1614610cf5576040517f08c379a0000000000000000000000000000000000000000000000000000000008152600401610cec906117bb565b60405180910390fd5b60008087604051610d0691906116d2565b90815260200160405180910390206000018054610d2290611718565b905014610d64576040517f08c379a0000000000000000000000000000000000000000000000000000000008152600401610d5b906118e1565b60405180910390fd5b6040845114610da8576040517f08c379a0000000000000000000000000000000000000000000000000000000008152600401610d9f90611973565b60405180910390fd5b60405180610100016040528087815260200186815260200185815260200184815260200183815260200182815260200142815260200160011515815250600087604051610df591906116d2565b90815260200160405180910390206000820151816000019081610e189190611b3f565b506020820151816001019081610e2e9190611b3f565b506040820151816002019081610e449190611b3f565b506060820151816003019081610e5a9190611b3f565b506080820151816004019081610e709190611b3f565b5060a0820151816005019081610e869190611b3f565b5060c0820151816006015560e08201518160070160006101000a81548160ff021916908315150217905550905050600185604051610ec491906116d2565b908152602001604051809103902086908060018154018082558091505060019003906000526020600020016000909190919091509081610f049190611b3f565b5084604051610f1391906116d2565b604051809103902086604051610f2991906116d2565b60405180910390207fd9da47083c48d6a5748fc3a0e88a0b78ef2c11ca92385863fce702828c9a99b286863342604051610f669493929190611c11565b60405180910390a3505050505050565b600260009054906101000a900473ffffffffffffffffffffffffffffffffffffffff1681565b6000604051905090565b600080fd5b600080fd5b600080fd5b600080fd5b6000601f19601f8301169050919050565b7f4e487b7100000000000000000000000000000000000000000000000000000000600052604160045260246000fd5b61100382610fba565b810181811067ffffffffffffffff8211171561102257611021610fcb565b5b80604052505050565b6000611035610f9c565b90506110418282610ffa565b919050565b600067ffffffffffffffff82111561106157611060610fcb565b5b61106a82610fba565b9050602081019050919050565b82818337600083830152505050565b600061109961109484611046565b61102b565b9050828152602081018484840111156110b5576110b4610fb5565b5b6110c0848285611077565b509392505050565b600082601f8301126110dd576110dc610fb0565b5b81356110ed848260208601611086565b91505092915050565b60006020828403121561110c5761110b610fa6565b5b600082013567ffffffffffffffff81111561112a57611129610fab565b5b611136848285016110c8565b91505092915050565b600081519050919050565b600082825260208201905092915050565b60005b8381101561117957808201518184015260208101905061115e565b60008484015250505050565b60006111908261113f565b61119a818561114a565b93506111aa81856020860161115b565b6111b381610fba565b840191505092915050565b6000819050919050565b6111d1816111be565b82525050565b60008115159050919050565b6111ec816111d7565b82525050565b600061010082019050818103600083015261120d818b611185565b90508181036020830152611221818a611185565b905081810360408301526112358189611185565b905081810360608301526112498188611185565b9050818103608083015261125d8187611185565b905081810360a08301526112718186611185565b905061128060c08301856111c8565b61128d60e08301846111e3565b9998505050505050505050565b600080604083850312156112b1576112b0610fa6565b5b600083013567ffffffffffffffff8111156112cf576112ce610fab565b5b6112db858286016110c8565b925050602083013567ffffffffffffffff8111156112fc576112fb610fab565b5b611308858286016110c8565b9150509250929050565b600060208201905061132760008301846111e3565b92915050565b600081519050919050565b600082825260208201905092915050565b6000819050602082019050919050565b600082825260208201905092915050565b60006113758261113f565b61137f8185611359565b935061138f81856020860161115b565b61139881610fba565b840191505092915050565b60006113af838361136a565b905092915050565b6000602082019050919050565b60006113cf8261132d565b6113d98185611338565b9350836020820285016113eb85611349565b8060005b85811015611427578484038952815161140885826113a3565b9450611413836113b7565b925060208a019950506001810190506113ef565b50829750879550505050505092915050565b6000602082019050818103600083015261145381846113c4565b905092915050565b611464816111be565b811461146f57600080fd5b50565b6000813590506114818161145b565b92915050565b6000806040838503121561149e5761149d610fa6565b5b600083013567ffffffffffffffff8111156114bc576114bb610fab565b5b6114c8858286016110c8565b92505060206114d985828601611472565b9150509250929050565b600060208201905081810360008301526114fd8184611185565b905092915050565b60008060008060008060c0878903121561152257611521610fa6565b5b600087013567ffffffffffffffff8111156115405761153f610fab565b5b61154c89828a016110c8565b965050602087013567ffffffffffffffff81111561156d5761156c610fab565b5b61157989828a016110c8565b955050604087013567ffffffffffffffff81111561159a57611599610fab565b5b6115a689828a016110c8565b945050606087013567ffffffffffffffff8111156115c7576115c6610fab565b5b6115d389828a016110c8565b935050608087013567ffffffffffffffff8111156115f4576115f3610fab565b5b61160089828a016110c8565b92505060a087013567ffffffffffffffff81111561162157611620610fab565b5b61162d89828a016110c8565b9150509295509295509295565b600073ffffffffffffffffffffffffffffffffffffffff82169050919050565b60006116658261163a565b9050919050565b6116758161165a565b82525050565b6000602082019050611690600083018461166c565b92915050565b600081905092915050565b60006116ac8261113f565b6116b68185611696565b93506116c681856020860161115b565b80840191505092915050565b60006116de82846116a1565b915081905092915050565b7f4e487b7100000000000000000000000000000000000000000000000000000000600052602260045260246000fd5b6000600282049050600182168061173057607f821691505b602082108103611743576117426116e9565b5b50919050565b7f4f6e6c792061646d696e2063616e20706572666f726d2074686973206163746960008201527f6f6e000000000000000000000000000000000000000000000000000000000000602082015250565b60006117a560228361114a565b91506117b082611749565b604082019050919050565b600060208201905081810360008301526117d481611798565b9050919050565b600081905092915050565b60008190508160005260206000209050919050565b6000815461180881611718565b61181281866117db565b9450600182166000811461182d576001811461184257611875565b60ff1983168652811515820286019350611875565b61184b856117e6565b60005b8381101561186d5781548189015260018201915060208101905061184e565b838801955050505b50505092915050565b600061188a82846117fb565b915081905092915050565b7f5265636f726420494420616c7265616479206578697374730000000000000000600082015250565b60006118cb60188361114a565b91506118d682611895565b602082019050919050565b600060208201905081810360008301526118fa816118be565b9050919050565b7f496e76616c69642068617368206c656e677468202873686f756c64206265203660008201527f3420636861727329000000000000000000000000000000000000000000000000602082015250565b600061195d60288361114a565b915061196882611901565b604082019050919050565b6000602082019050818103600083015261198c81611950565b9050919050565b60008190508160005260206000209050919050565b60006020601f8301049050919050565b600082821b905092915050565b6000600883026119f57fffffffffffffffffffffffffffffffffffffffffffffffffffffffffffffffff826119b8565b6119ff86836119b8565b95508019841693508086168417925050509392505050565b6000819050919050565b6000611a3c611a37611a32846111be565b611a17565b6111be565b9050919050565b6000819050919050565b611a5683611a21565b611a6a611a6282611a43565b8484546119c5565b825550505050565b600090565b611a7f611a72565b611a8a818484611a4d565b505050565b5b81811015611aae57611aa3600082611a77565b600181019050611a90565b5050565b601f821115611af357611ac481611993565b611acd846119a8565b81016020851015611adc578190505b611af0611ae8856119a8565b830182611a8f565b50505b505050565b600082821c905092915050565b6000611b1660001984600802611af8565b1980831691505092915050565b6000611b2f8383611b05565b9150826002028217905092915050565b611b488261113f565b67ffffffffffffffff811115611b6157611b60610fcb565b5b611b6b8254611718565b611b76828285611ab2565b600060209050601f831160018114611ba95760008415611b97578287015190505b611ba18582611b23565b865550611c09565b601f198416611bb786611993565b60005b82811015611bdf57848901518255600182019150602085019450602081019050611bba565b86831015611bfc5784890151611bf8601f891682611b05565b8355505b6001600288020188555050505b505050505050565b60006080820190508181036000830152611c2b8187611185565b90508181036020830152611c3f8186611185565b9050611c4e604083018561166c565b611c5b60608301846111c8565b9594505050505056fea2646970667358221220941702d6bfcb07dbd21326ef93b76d15795209eea181462b872b00fa3b99387664736f6c63430008130033",
  "linkReferences": {},
  "deployedLinkReferences": {}
}