{
  "_format": "hh-sol-artifact-1",
  "contractName": "ConsentManager",
  "sourceName": "contracts/ConsentManager.sol",
  "abi": [
    {
      "inputs": [
        {
          "internalType": "address",
          "name": "_patientRegistry",
          "type": "address"
        }
      ],
      "stateMutability": "nonpayable",
      "type": "constructor"
    },
    {
      "anonymous": false,
      "inputs": [
        {
          "indexed": true,
          "internalType": "string",
          "name": "nida",
          "type": "string"
        },
        {
          "indexed": true,
          "internalType": "string",
          "name": "doctorId",
          "type": "string"
        },
        {
          "indexed": false,
          "internalType": "address",
          "name": "grantedBy",
          "type": "address"
        },
        {
          "indexed": false,
          "internalType": "uint256",
          "name": "expiry",
          "type": "uint256"
        },
        {
          "indexed": false,
          "internalType": "uint256",
          "name": "timestamp",
          "type": "uint256"
        }
      ],
      "name": "ConsentGranted",
      "type": "event"
    },
    {
      "anonymous": false,
      "inputs": [
        {
          "indexed": true,
          "internalType": "string",
          "name": "nida",
          "type": "string"
        },
        {
          "indexed": true,
          "internalType": "string",
          "name": "doctorId",
          "type": "string"
        },
        {
          "indexed": false,
          "internalType": "address",
          "name": "revokedBy",
          "type": "address"
        },
        {
          "indexed": false,
          "internalType": "uint256",
          "name": "timestamp",
          "type": "uint256"
        }
      ],
      "name": "ConsentRevoked",
      "type": "event"
    },
    {
      "inputs": [
        {
          "internalType": "bytes32",
          "name": "",
          "type": "bytes32"
        }
      ],
      "name": "consents",
      "outputs": [
        {
          "internalType": "string",
          "name": "nida",
          "type": "string"
        },
        {
          "internalType": "string",
          "name": "doctorId",
          "type": "string"
        },
        {
          "internalType": "address",
          "name": "patientAddress",
          "type": "address"
        },
        {
          "internalType": "uint256",
          "name": "grantDate",
          "type": "uint256"
        },
        {
          "internalType": "uint256",
          "name": "expiryDate",
          "type": "uint256"
        },
        {
          "internalType": "bool",
          "name": "isActive",
          "type": "bool"
        }
      ],
      "stateMutability": "view",
      "type": "function"
    },
    {
      "inputs": [
        {
          "internalType": "string",
          "name": "_nida",
          "type": "string"
        },
        {
          "internalType": "string",
          "name": "_doctorId",
          "type": "string"
        }
      ],
      "name": "getConsentDetails",
      "outputs": [
        {
          "internalType": "string",
          "name": "",
          "type": "string"
        },
        {
          "internalType": "string",
          "name": "",
          "type": "string"
        },
        {
          "internalType": "address",
          "name": "",
          "type": "address"
        },
        {
          "internalType": "uint256",
          "name": "",
          "type": "uint256"
        },
        {
          "internalType": "uint256",
          "name": "",
          "type": "uint256"
        },
        {
          "internalType": "bool",
          "name": "",
          "type": "bool"
        }
      ],
      "stateMutability": "view",
      "type": "function"
    },
    {
      "inputs": [
        {
          "internalType": "string",
          "name": "_nida",
          "type": "string"
        }
      ],
      "name": "getConsentedDoctors",
      "outputs": [
        {
          "internalType": "string[]",
          "name": "",
          "type": "string[]"
        }
      ],
      "stateMutability": "view",
      "type": "function"
    },
    {
      "inputs": [
        {
          "internalType": "string",
          "name": "_nida",
          "type": "string"
        },
        {
          "internalType": "string",
          "name": "_doctorId",
          "type": "string"
        },
        {
          "internalType": "uint256",
          "name": "_expiryDays",
          "type": "uint256"
        }
      ],
      "name": "grantConsent",
      "outputs": [],
      "stateMutability": "nonpayable",
      "type": "function"
    },
    {
      "inputs": [
        {
          "internalType": "string",
          "name": "_nida",
          "type": "string"
        },
        {
          "internalType": "string",
          "name": "_doctorId",
          "type": "string"
        }
      ],
      "name": "hasConsent",
      "outputs": [
        {
          "internalType": "bool",
          "name": "",
          "type": "bool"
        }
      ],
      "stateMutability": "view",
      "type": "function"
    },
    {
      "inputs": [
        {
          "internalType": "string",
          "name": "",
          "type": "string"
        },
        {
          "internalType": "uint256",
          "name": "",
          "type": "uint256"
        }
      ],
      "name": "patientConsents",
      "outputs": [
        {
          "internalType": "string",
          "name": "",
          "type": "string"
        }
      ],
      "stateMutability": "view",
      "type": "function"
    },
    {
      "inputs": [],
      "name": "patientRegistry",
      "outputs": [
        {
          "internalType": "address",
          "name": "",
          "type": "address"
        }
      ],
      "stateMutability": "view",
      "type": "function"
    },
    {
      "inputs": [
        {
          "internalType": "string",
          "name": "_nida",
          "type": "string"
        },
        {
          "internalType": "string",
          "name": "_doctorId",
          "type": "string"
        }
      ],
      "name": "revokeConsent",
      "outputs": [],
      "stateMutability": "nonpayable",
      "type": "function"
    }
  ],
  "bytecode": "0x60806040523480156200001157600080fd5b5060405162001b4838038062001b488339818101604052810190620000379190620000e9565b80600260006101000a81548173ffffffffffffffffffffffffffffffffffffffff021916908373ffffffffffffffffffffffffffffffffffffffff160217905550506200011b565b600080fd5b600073ffffffffffffffffffffffffffffffffffffffff82169050919050565b6000620000b18262000084565b9050919050565b620000c381620000a4565b8114620000cf57600080fd5b50565b600081519050620000e381620000b8565b92915050565b6000602082840312156200010257620001016200007f565b5b60006200011284828501620000d2565b91505092915050565b611a1d806200012b6000396000f3fe608060405234801561001057600080fd5b50600436106100885760003560e01c80638c31cf651161005b5780638c31cf6514610113578063b3d8ccbd14610148578063be641c9e1461017d578063f67b60d8146101ad57610088565b80630ab46b391461008d5780635250c6e2146100a95780636235d14f146100c75780636a81f842146100f7575b600080fd5b6100a760048036038101906100a29190610f5f565b6101dd565b005b6100b161043c565b6040516100be919061102b565b60405180910390f35b6100e160048036038101906100dc9190611046565b610462565b6040516100ee91906111d0565b60405180910390f35b610111600480360381019061010c91906111f2565b610559565b005b61012d600480360381019061012891906111f2565b610704565b60405161013f969594939291906112de565b60405180910390f35b610162600480360381019061015d9190611383565b61091b565b604051610174969594939291906112de565b60405180910390f35b610197600480360381019061019291906113b0565b610a94565b6040516101a4919061140c565b60405180910390f35b6101c760048036038101906101c291906111f2565b610b63565b6040516101d4919061142e565b60405180910390f35b60006101e98484610d9c565b905060008082815260200190815260200160002060050160009054906101000a900460ff161561024e576040517f08c379a000000000000000000000000000000000000000000000000000000000815260040161024590611495565b60405180910390fd5b600080831161025e576000610279565b620151808361026d91906114e4565b426102789190611526565b5b90506040518060c001604052808681526020018581526020013373ffffffffffffffffffffffffffffffffffffffff1681526020014281526020018281526020016001151581525060008084815260200190815260200160002060008201518160000190816102e89190611766565b5060208201518160010190816102fe9190611766565b5060408201518160020160006101000a81548173ffffffffffffffffffffffffffffffffffffffff021916908373ffffffffffffffffffffffffffffffffffffffff160217905550606082015181600301556080820151816004015560a08201518160050160006101000a81548160ff02191690831515021790555090505060018560405161038d9190611874565b9081526020016040518091039020849080600181540180825580915050600190039060005260206000200160009091909190915090816103cd9190611766565b50836040516103dc9190611874565b6040518091039020856040516103f29190611874565b60405180910390207ff4a16eab924a4e1ef167ca0ef843c2d1c87db8c8b923a03f6a322ab1192395c633844260405161042d9392919061188b565b60405180910390a35050505050565b600260009054906101000a900473ffffffffffffffffffffffffffffffffffffffff1681565b60606001826040516104749190611874565b9081526020016040518091039020805480602002602001604051908101604052809291908181526020016000905b8282101561054e5783829060005260206000200180546104c190611589565b80601f01602080910402602001604051908101604052809291908181526020018280546104ed90611589565b801561053a5780601f1061050f5761010080835404028352916020019161053a565b820191906000526020600020905b81548152906001019060200180831161051d57829003601f168201915b5050505050815260200190600101906104a2565b505050509050919050565b60006105658383610d9c565b905060008082815260200190815260200160002060050160009054906101000a900460ff166105c9576040517f08c379a00000000000000000000000000000000000000000000000000000000081526004016105c09061190e565b60405180910390fd5b3373ffffffffffffffffffffffffffffffffffffffff1660008083815260200190815260200160002060020160009054906101000a900473ffffffffffffffffffffffffffffffffffffffff1673ffffffffffffffffffffffffffffffffffffffff161461066c576040517f08c379a00000000000000000000000000000000000000000000000000000000081526004016106639061197a565b60405180910390fd5b600080600083815260200190815260200160002060050160006101000a81548160ff021916908315150217905550816040516106a89190611874565b6040518091039020836040516106be9190611874565b60405180910390207f50c0f46441f693a6c143a8fd3dad9610fcda4f9f1d2e309aa706248ae39fed5533426040516106f792919061199a565b60405180910390a3505050565b60608060008060008060006107198989610d9c565b905060008060008381526020019081526020016000206040518060c001604052908160008201805461074a90611589565b80601f016020809104026020016040519081016040528092919081815260200182805461077690611589565b80156107c35780601f10610798576101008083540402835291602001916107c3565b820191906000526020600020905b8154815290600101906020018083116107a657829003601f168201915b505050505081526020016001820180546107dc90611589565b80601f016020809104026020016040519081016040528092919081815260200182805461080890611589565b80156108555780601f1061082a57610100808354040283529160200191610855565b820191906000526020600020905b81548152906001019060200180831161083857829003601f168201915b505050505081526020016002820160009054906101000a900473ffffffffffffffffffffffffffffffffffffffff1673ffffffffffffffffffffffffffffffffffffffff1673ffffffffffffffffffffffffffffffffffffffff16815260200160038201548152602001600482015481526020016005820160009054906101000a900460ff1615151515815250509050806000015181602001518260400151836060015184608001518560a0015197509750975097509750975050509295509295509295565b600060205280600052604060002060009150905080600001805461093e90611589565b80601f016020809104026020016040519081016040528092919081815260200182805461096a90611589565b80156109b75780601f1061098c576101008083540402835291602001916109b7565b820191906000526020600020905b81548152906001019060200180831161099a57829003601f168201915b5050505050908060010180546109cc90611589565b80601f01602080910402602001604051908101604052809291908181526020018280546109f890611589565b8015610a455780601f10610a1a57610100808354040283529160200191610a45565b820191906000526020600020905b815481529060010190602001808311610a2857829003601f168201915b5050505050908060020160009054906101000a900473ffffffffffffffffffffffffffffffffffffffff16908060030154908060040154908060050160009054906101000a900460ff16905086565b6001828051602081018201805184825260208301602085012081835280955050505050508181548110610ac657600080fd5b90600052602060002001600091509150508054610ae290611589565b80601f0160208091040260200160405190810160405280929190818152602001828054610b0e90611589565b8015610b5b5780601f10610b3057610100808354040283529160200191610b5b565b820191906000526020600020905b815481529060010190602001808311610b3e57829003601f168201915b505050505081565b600080610b708484610d9c565b905060008060008381526020019081526020016000206040518060c0016040529081600082018054610ba190611589565b80601f0160208091040260200160405190810160405280929190818152602001828054610bcd90611589565b8015610c1a5780601f10610bef57610100808354040283529160200191610c1a565b820191906000526020600020905b815481529060010190602001808311610bfd57829003601f168201915b50505050508152602001600182018054610c3390611589565b80601f0160208091040260200160405190810160405280929190818152602001828054610c5f90611589565b8015610cac5780601f10610c8157610100808354040283529160200191610cac565b820191906000526020600020905b815481529060010190602001808311610c8f57829003601f168201915b505050505081526020016002820160009054906101000a900473ffffffffffffffffffffffffffffffffffffffff1673ffffffffffffffffffffffffffffffffffffffff1673ffffffffffffffffffffffffffffffffffffffff16815260200160038201548152602001600482015481526020016005820160009054906101000a900460ff1615151515815250509050600081600001515103610d5457600092505050610d96565b8060a00151610d6857600092505050610d96565b60008160800151118015610d7f5750806080015142115b15610d8f57600092505050610d96565b6001925050505b92915050565b60008282604051602001610db19291906119c3565b60405160208183030381529060405280519060200120905092915050565b6000604051905090565b600080fd5b600080fd5b600080fd5b600080fd5b6000601f19601f8301169050919050565b7f4e487b7100000000000000000000000000000000000000000000000000000000600052604160045260246000fd5b610e3682610ded565b810181811067ffffffffffffffff82111715610e5557610e54610dfe565b5b80604052505050565b6000610e68610dcf565b9050610e748282610e2d565b919050565b600067ffffffffffffffff821115610e9457610e93610dfe565b5b610e9d82610ded565b9050602081019050919050565b82818337600083830152505050565b6000610ecc610ec784610e79565b610e5e565b905082815260208101848484011115610ee857610ee7610de8565b5b610ef3848285610eaa565b509392505050565b600082601f830112610f1057610f0f610de3565b5b8135610f20848260208601610eb9565b91505092915050565b6000819050919050565b610f3c81610f29565b8114610f4757600080fd5b50565b600081359050610f5981610f33565b92915050565b600080600060608486031215610f7857610f77610dd9565b5b600084013567ffffffffffffffff811115610f9657610f95610dde565b5b610fa286828701610efb565b935050602084013567ffffffffffffffff811115610fc357610fc2610dde565b5b610fcf86828701610efb565b9250506040610fe086828701610f4a565b9150509250925092565b600073ffffffffffffffffffffffffffffffffffffffff82169050919050565b600061101582610fea565b9050919050565b6110258161100a565b82525050565b6000602082019050611040600083018461101c565b92915050565b60006020828403121561105c5761105b610dd9565b5b600082013567ffffffffffffffff81111561107a57611079610dde565b5b61108684828501610efb565b91505092915050565b600081519050919050565b600082825260208201905092915050565b6000819050602082019050919050565b600081519050919050565b600082825260208201905092915050565b60005b838110156110f55780820151818401526020810190506110da565b60008484015250505050565b600061110c826110bb565b61111681856110c6565b93506111268185602086016110d7565b61112f81610ded565b840191505092915050565b60006111468383611101565b905092915050565b6000602082019050919050565b60006111668261108f565b611170818561109a565b935083602082028501611182856110ab565b8060005b858110156111be578484038952815161119f858261113a565b94506111aa8361114e565b925060208a01995050600181019050611186565b50829750879550505050505092915050565b600060208201905081810360008301526111ea818461115b565b905092915050565b6000806040838503121561120957611208610dd9565b5b600083013567ffffffffffffffff81111561122757611226610dde565b5b61123385828601610efb565b925050602083013567ffffffffffffffff81111561125457611253610dde565b5b61126085828601610efb565b9150509250929050565b600082825260208201905092915050565b6000611286826110bb565b611290818561126a565b93506112a08185602086016110d7565b6112a981610ded565b840191505092915050565b6112bd81610f29565b82525050565b60008115159050919050565b6112d8816112c3565b82525050565b600060c08201905081810360008301526112f8818961127b565b9050818103602083015261130c818861127b565b905061131b604083018761101c565b61132860608301866112b4565b61133560808301856112b4565b61134260a08301846112cf565b979650505050505050565b6000819050919050565b6113608161134d565b811461136b57600080fd5b50565b60008135905061137d81611357565b92915050565b60006020828403121561139957611398610dd9565b5b60006113a78482850161136e565b91505092915050565b600080604083850312156113c7576113c6610dd9565b5b600083013567ffffffffffffffff8111156113e5576113e4610dde565b5b6113f185828601610efb565b925050602061140285828601610f4a565b9150509250929050565b60006020820190508181036000830152611426818461127b565b905092915050565b600060208201905061144360008301846112cf565b92915050565b7f436f6e73656e7420616c72656164792061637469766500000000000000000000600082015250565b600061147f60168361126a565b915061148a82611449565b602082019050919050565b600060208201905081810360008301526114ae81611472565b9050919050565b7f4e487b7100000000000000000000000000000000000000000000000000000000600052601160045260246000fd5b60006114ef82610f29565b91506114fa83610f29565b925082820261150881610f29565b9150828204841483151761151f5761151e6114b5565b5b5092915050565b600061153182610f29565b915061153c83610f29565b9250828201905080821115611554576115536114b5565b5b92915050565b7f4e487b7100000000000000000000000000000000000000000000000000000000600052602260045260246000fd5b600060028204905060018216806115a157607f821691505b6020821081036115b4576115b361155a565b5b50919050565b60008190508160005260206000209050919050565b60006020601f8301049050919050565b600082821b905092915050565b60006008830261161c7fffffffffffffffffffffffffffffffffffffffffffffffffffffffffffffffff826115df565b61162686836115df565b95508019841693508086168417925050509392505050565b6000819050919050565b600061166361165e61165984610f29565b61163e565b610f29565b9050919050565b6000819050919050565b61167d83611648565b6116916116898261166a565b8484546115ec565b825550505050565b600090565b6116a6611699565b6116b1818484611674565b505050565b5b818110156116d5576116ca60008261169e565b6001810190506116b7565b5050565b601f82111561171a576116eb816115ba565b6116f4846115cf565b81016020851015611703578190505b61171761170f856115cf565b8301826116b6565b50505b505050565b600082821c905092915050565b600061173d6000198460080261171f565b1980831691505092915050565b6000611756838361172c565b9150826002028217905092915050565b61176f826110bb565b67ffffffffffffffff81111561178857611787610dfe565b5b6117928254611589565b61179d8282856116d9565b600060209050601f8311600181146117d057600084156117be578287015190505b6117c8858261174a565b865550611830565b601f1984166117de866115ba565b60005b82811015611806578489015182556001820191506020850194506020810190506117e1565b86831015611823578489015161181f601f89168261172c565b8355505b6001600288020188555050505b505050505050565b600081905092915050565b600061184e826110bb565b6118588185611838565b93506118688185602086016110d7565b80840191505092915050565b60006118808284611843565b915081905092915050565b60006060820190506118a0600083018661101c565b6118ad60208301856112b4565b6118ba60408301846112b4565b949350505050565b7f4e6f2061637469766520636f6e73656e7420666f756e64000000000000000000600082015250565b60006118f860178361126a565b9150611903826118c2565b602082019050919050565b60006020820190508181036000830152611927816118eb565b9050919050565b7f4f6e6c792070617469656e742063616e207265766f6b6520636f6e73656e7400600082015250565b6000611964601f8361126a565b915061196f8261192e565b602082019050919050565b6000602082019050818103600083015261199381611957565b9050919050565b60006040820190506119af600083018561101c565b6119bc60208301846112b4565b9392505050565b60006119cf8285611843565b91506119db8284611843565b9150819050939250505056fea2646970667358221220de3c54b93f3bdfa049816c5886b622a7079e8dbddb8c5abce45ad8df638b667f64736f6c63430008130033",
  "linkReferences": {},
  "deployedLinkReferences": {}
}