{
  "_format": "hh-sol-artifact-1",
  "contractName": "PatientRegistry",
  "sourceName": "contracts/PatientRegistry.sol",
  "abi": [
    {
      "anonymous": false,
      "inputs": [
        {
          "indexed": true,
          "internalType": "string",
          "name": "nida",
          "type": "string"
        },
        {
          "indexed": true,
          "internalType": "address",
          "name": "patientAddress",
          "type": "address"
        },
        {
          "indexed": false,
          "internalType": "string",
          "name": "fullName",
          "type": "string"
        },
        {
          "indexed": false,
          "internalType": "uint256",
          "name": "timestamp",
          "type": "uint256"
        }
      ],
      "name": "PatientRegistered",
      "type": "event"
    },
    {
      "inputs": [
        {
          "internalType": "address",
          "name": "_wallet",
          "type": "address"
        }
      ],
      "name": "getNidaByWallet",
      "outputs": [
        {
          "internalType": "string",
          "name": "",
          "type": "string"
        }
      ],
      "stateMutability": "view",
      "type": "function"
    },
    {
      "inputs": [
        {
          "internalType": "string",
          "name": "_nida",
          "type": "string"
        }
      ],
      "name": "getPatient",
      "outputs": [
        {
          "internalType": "string",
          "name": "",
          "type": "string"
        },
        {
          "internalType": "string",
          "name": "",
          "type": "string"
        },
        {
          "internalType": "string",
          "name": "",
          "type": "string"
        },
        {
          "internalType": "string",
          "name": "",
          "type": "string"
        },
        {
          "internalType": "address",
          "name": "",
          "type": "address"
        },
        {
          "internalType": "uint256",
          "name": "",
          "type": "uint256"
        },
        {
          "internalType": "bool",
          "name": "",
          "type": "bool"
        }
      ],
      "stateMutability": "view",
      "type": "function"
    },
    {
      "inputs": [
        {
          "internalType": "string",
          "name": "_nida",
          "type": "string"
        }
      ],
      "name": "isPatientRegistered",
      "outputs": [
        {
          "internalType": "bool",
          "name": "",
          "type": "bool"
        }
      ],
      "stateMutability": "view",
      "type": "function"
    },
    {
      "inputs": [
        {
          "internalType": "string",
          "name": "",
          "type": "string"
        }
      ],
      "name": "patients",
      "outputs": [
        {
          "internalType": "string",
          "name": "nida",
          "type": "string"
        },
        {
          "internalType": "string",
          "name": "fullName",
          "type": "string"
        },
        {
          "internalType": "string",
          "name": "email",
          "type": "string"
        },
        {
          "internalType": "string",
          "name": "phone",
          "type": "string"
        },
        {
          "internalType": "address",
          "name": "walletAddress",
          "type": "address"
        },
        {
          "internalType": "uint256",
          "name": "registrationDate",
          "type": "uint256"
        },
        {
          "internalType": "bool",
          "name": "isActive",
          "type": "bool"
        }
      ],
      "stateMutability": "view",
      "type": "function"
    },
    {
      "inputs": [
        {
          "internalType": "string",
          "name": "_nida",
          "type": "string"
        },
        {
          "internalType": "string",
          "name": "_fullName",
          "type": "string"
        },
        {
          "internalType": "string",
          "name": "_email",
          "type": "string"
        },
        {
          "internalType": "string",
          "name": "_phone",
          "type": "string"
        }
      ],
      "name": "registerPatient",
      "outputs": [],
      "stateMutability": "nonpayable",
      "type": "function"
    },
    {
      "inputs": [
        {
          "internalType": "address",
          "name": "",
          "type": "address"
        }
      ],
      "name": "walletToNida",
      "outputs": [
        {
          "internalType": "string",
          "name": "",
          "type": "string"
        }
      ],
      "stateMutability": "view",
      "type": "function"
    }
  ],
  "bytecode": "0x608060405234801561001057600080fd5b50611623806100206000396000f3fe608060405234801561001057600080fd5b50600436106100625760003560e01c8063326b7598146100675780634aeb0a4a146100975780634ba0a020146100c75780634f10c6c2146100e3578063c6009d8414610113578063e79a7a2e14610149575b600080fd5b610081600480360381019061007c9190610d2b565b61017f565b60405161008e9190610de8565b60405180910390f35b6100b160048036038101906100ac9190610d2b565b610250565b6040516100be9190610de8565b60405180910390f35b6100e160048036038101906100dc9190610f3f565b6102f0565b005b6100fd60048036038101906100f89190611016565b6106a4565b60405161010a919061107a565b60405180910390f35b61012d60048036038101906101289190611016565b6106dd565b60405161014097969594939291906110bd565b60405180910390f35b610163600480360381019061015e9190611016565b610982565b60405161017697969594939291906110bd565b60405180910390f35b6060600160008373ffffffffffffffffffffffffffffffffffffffff1673ffffffffffffffffffffffffffffffffffffffff16815260200190815260200160002080546101cb90611177565b80601f01602080910402602001604051908101604052809291908181526020018280546101f790611177565b80156102445780601f1061021957610100808354040283529160200191610244565b820191906000526020600020905b81548152906001019060200180831161022757829003601f168201915b50505050509050919050565b6001602052806000526040600020600091509050805461026f90611177565b80601f016020809104026020016040519081016040528092919081815260200182805461029b90611177565b80156102e85780601f106102bd576101008083540402835291602001916102e8565b820191906000526020600020905b8154815290600101906020018083116102cb57829003601f168201915b505050505081565b600f84511015610335576040517f08c379a000000000000000000000000000000000000000000000000000000000815260040161032c906111f4565b60405180910390fd5b600080856040516103469190611250565b9081526020016040518091039020600001805461036290611177565b9050146103a4576040517f08c379a000000000000000000000000000000000000000000000000000000000815260040161039b906112b3565b60405180910390fd5b6000600160003373ffffffffffffffffffffffffffffffffffffffff1673ffffffffffffffffffffffffffffffffffffffff16815260200190815260200160002080546103f090611177565b80601f016020809104026020016040519081016040528092919081815260200182805461041c90611177565b80156104695780601f1061043e57610100808354040283529160200191610469565b820191906000526020600020905b81548152906001019060200180831161044c57829003601f168201915b5050505050905060008151146104b4576040517f08c379a00000000000000000000000000000000000000000000000000000000081526004016104ab9061131f565b60405180910390fd5b6040518060e001604052808681526020018581526020018481526020018381526020013373ffffffffffffffffffffffffffffffffffffffff168152602001428152602001600115158152506000866040516105109190611250565b9081526020016040518091039020600082015181600001908161053391906114eb565b50602082015181600101908161054991906114eb565b50604082015181600201908161055f91906114eb565b50606082015181600301908161057591906114eb565b5060808201518160040160006101000a81548173ffffffffffffffffffffffffffffffffffffffff021916908373ffffffffffffffffffffffffffffffffffffffff16021790555060a0820151816005015560c08201518160060160006101000a81548160ff02191690831515021790555090505084600160003373ffffffffffffffffffffffffffffffffffffffff1673ffffffffffffffffffffffffffffffffffffffff168152602001908152602001600020908161063691906114eb565b503373ffffffffffffffffffffffffffffffffffffffff168560405161065c9190611250565b60405180910390207f9cde5222994c2f81e948bee2f0fbbbe6ab2da934de817f84ad874c24757d421286426040516106959291906115bd565b60405180910390a35050505050565b6000806000836040516106b79190611250565b908152602001604051809103902060000180546106d390611177565b9050119050919050565b60008180516020810182018051848252602083016020850120818352809550505050505060009150905080600001805461071690611177565b80601f016020809104026020016040519081016040528092919081815260200182805461074290611177565b801561078f5780601f106107645761010080835404028352916020019161078f565b820191906000526020600020905b81548152906001019060200180831161077257829003601f168201915b5050505050908060010180546107a490611177565b80601f01602080910402602001604051908101604052809291908181526020018280546107d090611177565b801561081d5780601f106107f25761010080835404028352916020019161081d565b820191906000526020600020905b81548152906001019060200180831161080057829003601f168201915b50505050509080600201805461083290611177565b80601f016020809104026020016040519081016040528092919081815260200182805461085e90611177565b80156108ab5780601f10610880576101008083540402835291602001916108ab565b820191906000526020600020905b81548152906001019060200180831161088e57829003601f168201915b5050505050908060030180546108c090611177565b80601f01602080910402602001604051908101604052809291908181526020018280546108ec90611177565b80156109395780601f1061090e57610100808354040283529160200191610939565b820191906000526020600020905b81548152906001019060200180831161091c57829003601f168201915b5050505050908060040160009054906101000a900473ffffffffffffffffffffffffffffffffffffffff16908060050154908060060160009054906101000a900460ff16905087565b60608060608060008060008060008960405161099e9190611250565b90815260200160405180910390206040518060e00160405290816000820180546109c790611177565b80601f01602080910402602001604051908101604052809291908181526020018280546109f390611177565b8015610a405780601f10610a1557610100808354040283529160200191610a40565b820191906000526020600020905b815481529060010190602001808311610a2357829003601f168201915b50505050508152602001600182018054610a5990611177565b80601f0160208091040260200160405190810160405280929190818152602001828054610a8590611177565b8015610ad25780601f10610aa757610100808354040283529160200191610ad2565b820191906000526020600020905b815481529060010190602001808311610ab557829003601f168201915b50505050508152602001600282018054610aeb90611177565b80601f0160208091040260200160405190810160405280929190818152602001828054610b1790611177565b8015610b645780601f10610b3957610100808354040283529160200191610b64565b820191906000526020600020905b815481529060010190602001808311610b4757829003601f168201915b50505050508152602001600382018054610b7d90611177565b80601f0160208091040260200160405190810160405280929190818152602001828054610ba990611177565b8015610bf65780601f10610bcb57610100808354040283529160200191610bf6565b820191906000526020600020905b815481529060010190602001808311610bd957829003601f168201915b505050505081526020016004820160009054906101000a900473ffffffffffffffffffffffffffffffffffffffff1673ffffffffffffffffffffffffffffffffffffffff1673ffffffffffffffffffffffffffffffffffffffff168152602001600582015481526020016006820160009054906101000a900460ff1615151515815250509050806000015181602001518260400151836060015184608001518560a001518660c00151975097509750975097509750975050919395979092949650565b6000604051905090565b600080fd5b600080fd5b600073ffffffffffffffffffffffffffffffffffffffff82169050919050565b6000610cf882610ccd565b9050919050565b610d0881610ced565b8114610d1357600080fd5b50565b600081359050610d2581610cff565b92915050565b600060208284031215610d4157610d40610cc3565b5b6000610d4f84828501610d16565b91505092915050565b600081519050919050565b600082825260208201905092915050565b60005b83811015610d92578082015181840152602081019050610d77565b60008484015250505050565b6000601f19601f8301169050919050565b6000610dba82610d58565b610dc48185610d63565b9350610dd4818560208601610d74565b610ddd81610d9e565b840191505092915050565b60006020820190508181036000830152610e028184610daf565b905092915050565b600080fd5b600080fd5b7f4e487b7100000000000000000000000000000000000000000000000000000000600052604160045260246000fd5b610e4c82610d9e565b810181811067ffffffffffffffff82111715610e6b57610e6a610e14565b5b80604052505050565b6000610e7e610cb9565b9050610e8a8282610e43565b919050565b600067ffffffffffffffff821115610eaa57610ea9610e14565b5b610eb382610d9e565b9050602081019050919050565b82818337600083830152505050565b6000610ee2610edd84610e8f565b610e74565b905082815260208101848484011115610efe57610efd610e0f565b5b610f09848285610ec0565b509392505050565b600082601f830112610f2657610f25610e0a565b5b8135610f36848260208601610ecf565b91505092915050565b60008060008060808587031215610f5957610f58610cc3565b5b600085013567ffffffffffffffff811115610f7757610f76610cc8565b5b610f8387828801610f11565b945050602085013567ffffffffffffffff811115610fa457610fa3610cc8565b5b610fb087828801610f11565b935050604085013567ffffffffffffffff811115610fd157610fd0610cc8565b5b610fdd87828801610f11565b925050606085013567ffffffffffffffff811115610ffe57610ffd610cc8565b5b61100a87828801610f11565b91505092959194509250565b60006020828403121561102c5761102b610cc3565b5b600082013567ffffffffffffffff81111561104a57611049610cc8565b5b61105684828501610f11565b91505092915050565b60008115159050919050565b6110748161105f565b82525050565b600060208201905061108f600083018461106b565b92915050565b61109e81610ced565b82525050565b6000819050919050565b6110b7816110a4565b82525050565b600060e08201905081810360008301526110d7818a610daf565b905081810360208301526110eb8189610daf565b905081810360408301526110ff8188610daf565b905081810360608301526111138187610daf565b90506111226080830186611095565b61112f60a08301856110ae565b61113c60c083018461106b565b98975050505050505050565b7f4e487b7100000000000000000000000000000000000000000000000000000000600052602260045260246000fd5b6000600282049050600182168061118f57607f821691505b6020821081036111a2576111a1611148565b5b50919050565b7f4e494441206d757374206265206174206c656173742031352064696769747300600082015250565b60006111de601f83610d63565b91506111e9826111a8565b602082019050919050565b6000602082019050818103600083015261120d816111d1565b9050919050565b600081905092915050565b600061122a82610d58565b6112348185611214565b9350611244818560208601610d74565b80840191505092915050565b600061125c828461121f565b915081905092915050565b7f50617469656e7420616c72656164792072656769737465726564000000000000600082015250565b600061129d601a83610d63565b91506112a882611267565b602082019050919050565b600060208201905081810360008301526112cc81611290565b9050919050565b7f57616c6c657420616c7265616479207265676973746572656400000000000000600082015250565b6000611309601983610d63565b9150611314826112d3565b602082019050919050565b60006020820190508181036000830152611338816112fc565b9050919050565b60008190508160005260206000209050919050565b60006020601f8301049050919050565b600082821b905092915050565b6000600883026113a17fffffffffffffffffffffffffffffffffffffffffffffffffffffffffffffffff82611364565b6113ab8683611364565b95508019841693508086168417925050509392505050565b6000819050919050565b60006113e86113e36113de846110a4565b6113c3565b6110a4565b9050919050565b6000819050919050565b611402836113cd565b61141661140e826113ef565b848454611371565b825550505050565b600090565b61142b61141e565b6114368184846113f9565b505050565b5b8181101561145a5761144f600082611423565b60018101905061143c565b5050565b601f82111561149f576114708161133f565b61147984611354565b81016020851015611488578190505b61149c61149485611354565b83018261143b565b50505b505050565b600082821c905092915050565b60006114c2600019846008026114a4565b1980831691505092915050565b60006114db83836114b1565b9150826002028217905092915050565b6114f482610d58565b67ffffffffffffffff81111561150d5761150c610e14565b5b6115178254611177565b61152282828561145e565b600060209050601f8311600181146115555760008415611543578287015190505b61154d85826114cf565b8655506115b5565b601f1984166115638661133f565b60005b8281101561158b57848901518255600182019150602085019450602081019050611566565b868310156115a857848901516115a4601f8916826114b1565b8355505b6001600288020188555050505b505050505050565b600060408201905081810360008301526115d78185610daf565b90506115e660208301846110ae565b939250505056fea2646970667358221220594f13f9ffab3b4af741d5c3cf885d893ff04295a15e3686e1edb50bebf4daa864736f6c63430008130033",
  "linkReferences": {},
  "deployedLinkReferences": {}
}